{
  "_format": "hh-sol-artifact-1",
  "contractName": "WavePortal",
  "sourceName": "contracts/WavePortal.sol",
  "abi": [
    {
      "inputs": [],
      "stateMutability": "payable",
      "type": "constructor"
    },
    {
      "anonymous": false,
      "inputs": [
        {
          "indexed": true,
          "internalType": "address",
          "name": "from",
          "type": "address"
        },
        {
          "indexed": false,
          "internalType": "uint256",
          "name": "timestamp",
          "type": "uint256"
        },
        {
          "indexed": false,
          "internalType": "string",
          "name": "message",
          "type": "string"
        }
      ],
      "name": "NewWave",
      "type": "event"
    },
    {
      "inputs": [],
      "name": "getAllWaves",
      "outputs": [
        {
          "components": [
            {
              "internalType": "address",
              "name": "waver",
              "type": "address"
            },
            {
              "internalType": "string",
              "name": "message",
              "type": "string"
            },
            {
              "internalType": "uint256",
              "name": "timestamp",
              "type": "uint256"
            }
          ],
          "internalType": "struct WavePortal.Wave[]",
          "name": "",
          "type": "tuple[]"
        }
      ],
      "stateMutability": "view",
      "type": "function"
    },
    {
      "inputs": [],
      "name": "getMostWaves",
      "outputs": [
        {
          "internalType": "address",
          "name": "",
          "type": "address"
        }
      ],
      "stateMutability": "view",
      "type": "function"
    },
    {
      "inputs": [],
      "name": "getTotalWaves",
      "outputs": [
        {
          "internalType": "uint256",
          "name": "",
          "type": "uint256"
        }
      ],
      "stateMutability": "view",
      "type": "function"
    },
    {
      "inputs": [
        {
          "internalType": "string",
          "name": "_message",
          "type": "string"
        }
      ],
      "name": "wave",
      "outputs": [],
      "stateMutability": "nonpayable",
      "type": "function"
    }
  ],
  "bytecode": "0x60806040526200004f6040518060400160405280600481526020017f68657921000000000000000000000000000000000000000000000000000000008152506200005d60201b6200076a1760201c565b6000600181905550620001f1565b620000fd816040516024016200007491906200016a565b6040516020818303038152906040527f41304fac000000000000000000000000000000000000000000000000000000007bffffffffffffffffffffffffffffffffffffffffffffffffffffffff19166020820180517bffffffffffffffffffffffffffffffffffffffffffffffffffffffff83818316178352505050506200010060201b60201c565b50565b60008151905060006a636f6e736f6c652e6c6f679050602083016000808483855afa5050505050565b600062000136826200018e565b62000142818562000199565b935062000154818560208601620001aa565b6200015f81620001e0565b840191505092915050565b6000602082019050818103600083015262000186818462000129565b905092915050565b600081519050919050565b600082825260208201905092915050565b60005b83811015620001ca578082015181840152602081019050620001ad565b83811115620001da576000848401525b50505050565b6000601f19601f8301169050919050565b61129880620002016000396000f3fe608060405234801561001057600080fd5b506004361061004c5760003560e01c8063449d46c0146100515780636204f3801461006d5780639a2cdc081461008b578063bd43a908146100a9575b600080fd5b61006b60048036038101906100669190610b0e565b6100c7565b005b610075610433565b6040516100829190610d54565b60405180910390f35b6100936105ce565b6040516100a09190610e91565b60405180910390f35b6100b1610619565b6040516100be9190610d6f565b60405180910390f35b6000808154809291906100d9906110da565b919050555061011d6040518060400160405280600c81526020017f257320686173207761766564000000000000000000000000000000000000000081525033610803565b3360026000600154815260200190815260200160002060006101000a81548173ffffffffffffffffffffffffffffffffffffffff021916908373ffffffffffffffffffffffffffffffffffffffff1602179055506001600360003373ffffffffffffffffffffffffffffffffffffffff1673ffffffffffffffffffffffffffffffffffffffff168152602001908152602001600020546101bd9190610fa3565b600360003373ffffffffffffffffffffffffffffffffffffffff1673ffffffffffffffffffffffffffffffffffffffff1681526020019081526020016000208190555060016000815480929190610213906110da565b9190505550600460405180606001604052803373ffffffffffffffffffffffffffffffffffffffff16815260200183815260200142815250908060018154018082558091505060019003906000526020600020906003020160009091909190915060008201518160000160006101000a81548173ffffffffffffffffffffffffffffffffffffffff021916908373ffffffffffffffffffffffffffffffffffffffff16021790555060208201518160010190805190602001906102d7929190610a03565b506040820151816002015550503373ffffffffffffffffffffffffffffffffffffffff167f5f7e16dc676677766a70e9c5628aa6c54ddb8b6e5188e2ae1e1f17f1ffbea716428360405161032c929190610eac565b60405180910390a26000655af3107a4000905047811115610382576040517f08c379a000000000000000000000000000000000000000000000000000000000815260040161037990610e51565b60405180910390fd5b60003373ffffffffffffffffffffffffffffffffffffffff16826040516103a890610d3f565b60006040518083038185875af1925050503d80600081146103e5576040519150601f19603f3d011682016040523d82523d6000602084013e6103ea565b606091505b505090508061042e576040517f08c379a000000000000000000000000000000000000000000000000000000000815260040161042590610e71565b60405180910390fd5b505050565b60008060009050600080600090505b6001548110156105855782600360006002600085815260200190815260200160002060009054906101000a900473ffffffffffffffffffffffffffffffffffffffff1673ffffffffffffffffffffffffffffffffffffffff1673ffffffffffffffffffffffffffffffffffffffff16815260200190815260200160002054111561057257600360006002600084815260200190815260200160002060009054906101000a900473ffffffffffffffffffffffffffffffffffffffff1673ffffffffffffffffffffffffffffffffffffffff1673ffffffffffffffffffffffffffffffffffffffff1681526020019081526020016000205492506002600082815260200190815260200160002060009054906101000a900473ffffffffffffffffffffffffffffffffffffffff1691505b808061057d906110da565b915050610442565b506105c66040518060400160405280601a81526020017f546865206d6f7374207761766573206973202564206279202573000000000000815250838361089f565b809250505090565b60006106116040518060400160405280601781526020017f5765206861766520256420746f74616c2077617665732100000000000000000081525060005461093e565b600054905090565b60606004805480602002602001604051908101604052809291908181526020016000905b8282101561076157838290600052602060002090600302016040518060600160405290816000820160009054906101000a900473ffffffffffffffffffffffffffffffffffffffff1673ffffffffffffffffffffffffffffffffffffffff1673ffffffffffffffffffffffffffffffffffffffff1681526020016001820180546106c690611077565b80601f01602080910402602001604051908101604052809291908181526020018280546106f290611077565b801561073f5780601f106107145761010080835404028352916020019161073f565b820191906000526020600020905b81548152906001019060200180831161072257829003601f168201915b505050505081526020016002820154815250508152602001906001019061063d565b50505050905090565b6108008160405160240161077e9190610d91565b6040516020818303038152906040527f41304fac000000000000000000000000000000000000000000000000000000007bffffffffffffffffffffffffffffffffffffffffffffffffffffffff19166020820180517bffffffffffffffffffffffffffffffffffffffffffffffffffffffff83818316178352505050506109da565b50565b61089b8282604051602401610819929190610db3565b6040516020818303038152906040527f319af333000000000000000000000000000000000000000000000000000000007bffffffffffffffffffffffffffffffffffffffffffffffffffffffff19166020820180517bffffffffffffffffffffffffffffffffffffffffffffffffffffffff83818316178352505050506109da565b5050565b6109398383836040516024016108b793929190610e13565b6040516020818303038152906040527fe3849f79000000000000000000000000000000000000000000000000000000007bffffffffffffffffffffffffffffffffffffffffffffffffffffffff19166020820180517bffffffffffffffffffffffffffffffffffffffffffffffffffffffff83818316178352505050506109da565b505050565b6109d68282604051602401610954929190610de3565b6040516020818303038152906040527f9710a9d0000000000000000000000000000000000000000000000000000000007bffffffffffffffffffffffffffffffffffffffffffffffffffffffff19166020820180517bffffffffffffffffffffffffffffffffffffffffffffffffffffffff83818316178352505050506109da565b5050565b60008151905060006a636f6e736f6c652e6c6f679050602083016000808483855afa5050505050565b828054610a0f90611077565b90600052602060002090601f016020900481019282610a315760008555610a78565b82601f10610a4a57805160ff1916838001178555610a78565b82800160010185558215610a78579182015b82811115610a77578251825591602001919060010190610a5c565b5b509050610a859190610a89565b5090565b5b80821115610aa2576000816000905550600101610a8a565b5090565b6000610ab9610ab484610f01565b610edc565b905082815260208101848484011115610ad157600080fd5b610adc848285611035565b509392505050565b600082601f830112610af557600080fd5b8135610b05848260208601610aa6565b91505092915050565b600060208284031215610b2057600080fd5b600082013567ffffffffffffffff811115610b3a57600080fd5b610b4684828501610ae4565b91505092915050565b6000610b5b8383610cd1565b905092915050565b610b6c81610ff9565b82525050565b610b7b81610ff9565b82525050565b6000610b8c82610f42565b610b968185610f65565b935083602082028501610ba885610f32565b8060005b85811015610be45784840389528151610bc58582610b4f565b9450610bd083610f58565b925060208a01995050600181019050610bac565b50829750879550505050505092915050565b6000610c0182610f4d565b610c0b8185610f81565b9350610c1b818560208601611044565b610c24816111b0565b840191505092915050565b6000610c3a82610f4d565b610c448185610f92565b9350610c54818560208601611044565b610c5d816111b0565b840191505092915050565b6000610c75603483610f92565b9150610c80826111c1565b604082019050919050565b6000610c98602783610f92565b9150610ca382611210565b604082019050919050565b6000610cbb600083610f76565b9150610cc68261125f565b600082019050919050565b6000606083016000830151610ce96000860182610b63565b5060208301518482036020860152610d018282610bf6565b9150506040830151610d166040860182610d21565b508091505092915050565b610d2a8161102b565b82525050565b610d398161102b565b82525050565b6000610d4a82610cae565b9150819050919050565b6000602082019050610d696000830184610b72565b92915050565b60006020820190508181036000830152610d898184610b81565b905092915050565b60006020820190508181036000830152610dab8184610c2f565b905092915050565b60006040820190508181036000830152610dcd8185610c2f565b9050610ddc6020830184610b72565b9392505050565b60006040820190508181036000830152610dfd8185610c2f565b9050610e0c6020830184610d30565b9392505050565b60006060820190508181036000830152610e2d8186610c2f565b9050610e3c6020830185610d30565b610e496040830184610b72565b949350505050565b60006020820190508181036000830152610e6a81610c68565b9050919050565b60006020820190508181036000830152610e8a81610c8b565b9050919050565b6000602082019050610ea66000830184610d30565b92915050565b6000604082019050610ec16000830185610d30565b8181036020830152610ed38184610c2f565b90509392505050565b6000610ee6610ef7565b9050610ef282826110a9565b919050565b6000604051905090565b600067ffffffffffffffff821115610f1c57610f1b611181565b5b610f25826111b0565b9050602081019050919050565b6000819050602082019050919050565b600081519050919050565b600081519050919050565b6000602082019050919050565b600082825260208201905092915050565b600081905092915050565b600082825260208201905092915050565b600082825260208201905092915050565b6000610fae8261102b565b9150610fb98361102b565b9250827fffffffffffffffffffffffffffffffffffffffffffffffffffffffffffffffff03821115610fee57610fed611123565b5b828201905092915050565b60006110048261100b565b9050919050565b600073ffffffffffffffffffffffffffffffffffffffff82169050919050565b6000819050919050565b82818337600083830152505050565b60005b83811015611062578082015181840152602081019050611047565b83811115611071576000848401525b50505050565b6000600282049050600182168061108f57607f821691505b602082108114156110a3576110a2611152565b5b50919050565b6110b2826111b0565b810181811067ffffffffffffffff821117156110d1576110d0611181565b5b80604052505050565b60006110e58261102b565b91507fffffffffffffffffffffffffffffffffffffffffffffffffffffffffffffffff82141561111857611117611123565b5b600182019050919050565b7f4e487b7100000000000000000000000000000000000000000000000000000000600052601160045260246000fd5b7f4e487b7100000000000000000000000000000000000000000000000000000000600052602260045260246000fd5b7f4e487b7100000000000000000000000000000000000000000000000000000000600052604160045260246000fd5b6000601f19601f8301169050919050565b7f547279696e6720746f207769746864726177206d6f7265206d6f6e657920746860008201527f616e2074686520636f6e7472616374206861732e000000000000000000000000602082015250565b7f4661696c656420746f207769746864726177206d6f6e65792066726f6d20636f60008201527f6e74726163742e00000000000000000000000000000000000000000000000000602082015250565b5056fea264697066735822122045a460b95b9b0f37260efd312ba05e50c0b180919ed84942e95a1c67c705336c64736f6c63430008040033",
  "linkReferences": {},
  "deployedLinkReferences": {}
}